:020000040000FA
:100000008316850185090510860183128501860105
:1000100006168C20851809288616051001308600E2
:100020008616AB208C208A20023086008616AB20F4
:100030008C208A20033086008616AB208C208A20F4
:100040000F3086008611AB2086010616013086002F
:1000500006168C200519292886010617033086000C
:100060000617AB208C208A20023086000617AB20B2
:100070008C208A20013086000617AB208C208A2035
:10008000003086000617AB208C208A200F308600B7
:1000900006178611AB200F3086008615AB20003086
:1000A000860086150617AB20093086000617AB20A0
:1000B0008C208A200A3086000617AB208C208A20EC
:1000C0008615061786010F308600AB2002308600A9
:1000D0008611AB208C208A2006168C2085196D286D
:1000E00086018617013086008617AB208C208A2077
:1000F000023086008617AB208C208A2003308600D1
:100100008617AB208C208A2086010F30860086114E
:10011000AB200628033A0800051A080000308600C4
:100120008501051486169F2086129F20051A9028A7
:1001300085010800E8308C008C0B9C280800FD30FD
:100140008C00FD308D00640064008D0BA3288C0BA7
:0E015000A128AA2808009F209F209F200800B9
:02400E00F13F80
:00000001FF
